{
    "_format": "hh-sol-artifact-1",
    "contractName": "MyEpicNFT",
    "sourceName": "contracts/MyEpicNFT.sol",
    "abi": [
        {
            "inputs": [],
            "stateMutability": "nonpayable",
            "type": "constructor"
        },
        {
            "anonymous": false,
            "inputs": [
                {
                    "indexed": true,
                    "internalType": "address",
                    "name": "owner",
                    "type": "address"
                },
                {
                    "indexed": true,
                    "internalType": "address",
                    "name": "approved",
                    "type": "address"
                },
                {
                    "indexed": true,
                    "internalType": "uint256",
                    "name": "tokenId",
                    "type": "uint256"
                }
            ],
            "name": "Approval",
            "type": "event"
        },
        {
            "anonymous": false,
            "inputs": [
                {
                    "indexed": true,
                    "internalType": "address",
                    "name": "owner",
                    "type": "address"
                },
                {
                    "indexed": true,
                    "internalType": "address",
                    "name": "operator",
                    "type": "address"
                },
                {
                    "indexed": false,
                    "internalType": "bool",
                    "name": "approved",
                    "type": "bool"
                }
            ],
            "name": "ApprovalForAll",
            "type": "event"
        },
        {
            "anonymous": false,
            "inputs": [
                {
                    "indexed": false,
                    "internalType": "address",
                    "name": "sender",
                    "type": "address"
                },
                {
                    "indexed": false,
                    "internalType": "uint256",
                    "name": "tokenId",
                    "type": "uint256"
                }
            ],
            "name": "NewEpicNFTMinted",
            "type": "event"
        },
        {
            "anonymous": false,
            "inputs": [
                {
                    "indexed": true,
                    "internalType": "address",
                    "name": "from",
                    "type": "address"
                },
                {
                    "indexed": true,
                    "internalType": "address",
                    "name": "to",
                    "type": "address"
                },
                {
                    "indexed": true,
                    "internalType": "uint256",
                    "name": "tokenId",
                    "type": "uint256"
                }
            ],
            "name": "Transfer",
            "type": "event"
        },
        {
            "inputs": [
                {
                    "internalType": "address",
                    "name": "to",
                    "type": "address"
                },
                {
                    "internalType": "uint256",
                    "name": "tokenId",
                    "type": "uint256"
                }
            ],
            "name": "approve",
            "outputs": [],
            "stateMutability": "nonpayable",
            "type": "function"
        },
        {
            "inputs": [
                {
                    "internalType": "address",
                    "name": "owner",
                    "type": "address"
                }
            ],
            "name": "balanceOf",
            "outputs": [
                {
                    "internalType": "uint256",
                    "name": "",
                    "type": "uint256"
                }
            ],
            "stateMutability": "view",
            "type": "function"
        },
        {
            "inputs": [
                {
                    "internalType": "uint256",
                    "name": "tokenId",
                    "type": "uint256"
                }
            ],
            "name": "getApproved",
            "outputs": [
                {
                    "internalType": "address",
                    "name": "",
                    "type": "address"
                }
            ],
            "stateMutability": "view",
            "type": "function"
        },
        {
            "inputs": [
                {
                    "internalType": "address",
                    "name": "owner",
                    "type": "address"
                },
                {
                    "internalType": "address",
                    "name": "operator",
                    "type": "address"
                }
            ],
            "name": "isApprovedForAll",
            "outputs": [
                {
                    "internalType": "bool",
                    "name": "",
                    "type": "bool"
                }
            ],
            "stateMutability": "view",
            "type": "function"
        },
        {
            "inputs": [],
            "name": "makeAnEpicNFT",
            "outputs": [],
            "stateMutability": "nonpayable",
            "type": "function"
        },
        {
            "inputs": [],
            "name": "name",
            "outputs": [
                {
                    "internalType": "string",
                    "name": "",
                    "type": "string"
                }
            ],
            "stateMutability": "view",
            "type": "function"
        },
        {
            "inputs": [
                {
                    "internalType": "uint256",
                    "name": "tokenId",
                    "type": "uint256"
                }
            ],
            "name": "ownerOf",
            "outputs": [
                {
                    "internalType": "address",
                    "name": "",
                    "type": "address"
                }
            ],
            "stateMutability": "view",
            "type": "function"
        },
        {
            "inputs": [
                {
                    "internalType": "uint256",
                    "name": "tokenId",
                    "type": "uint256"
                }
            ],
            "name": "randomColor",
            "outputs": [
                {
                    "internalType": "string",
                    "name": "",
                    "type": "string"
                }
            ],
            "stateMutability": "view",
            "type": "function"
        },
        {
            "inputs": [
                {
                    "internalType": "uint256",
                    "name": "tokenId",
                    "type": "uint256"
                }
            ],
            "name": "randomFirstWord",
            "outputs": [
                {
                    "internalType": "string",
                    "name": "",
                    "type": "string"
                }
            ],
            "stateMutability": "view",
            "type": "function"
        },
        {
            "inputs": [
                {
                    "internalType": "uint256",
                    "name": "tokenId",
                    "type": "uint256"
                }
            ],
            "name": "randomSecondWord",
            "outputs": [
                {
                    "internalType": "string",
                    "name": "",
                    "type": "string"
                }
            ],
            "stateMutability": "view",
            "type": "function"
        },
        {
            "inputs": [
                {
                    "internalType": "uint256",
                    "name": "tokenId",
                    "type": "uint256"
                }
            ],
            "name": "randomThirdWord",
            "outputs": [
                {
                    "internalType": "string",
                    "name": "",
                    "type": "string"
                }
            ],
            "stateMutability": "view",
            "type": "function"
        },
        {
            "inputs": [
                {
                    "internalType": "address",
                    "name": "from",
                    "type": "address"
                },
                {
                    "internalType": "address",
                    "name": "to",
                    "type": "address"
                },
                {
                    "internalType": "uint256",
                    "name": "tokenId",
                    "type": "uint256"
                }
            ],
            "name": "safeTransferFrom",
            "outputs": [],
            "stateMutability": "nonpayable",
            "type": "function"
        },
        {
            "inputs": [
                {
                    "internalType": "address",
                    "name": "from",
                    "type": "address"
                },
                {
                    "internalType": "address",
                    "name": "to",
                    "type": "address"
                },
                {
                    "internalType": "uint256",
                    "name": "tokenId",
                    "type": "uint256"
                },
                {
                    "internalType": "bytes",
                    "name": "_data",
                    "type": "bytes"
                }
            ],
            "name": "safeTransferFrom",
            "outputs": [],
            "stateMutability": "nonpayable",
            "type": "function"
        },
        {
            "inputs": [
                {
                    "internalType": "address",
                    "name": "operator",
                    "type": "address"
                },
                {
                    "internalType": "bool",
                    "name": "approved",
                    "type": "bool"
                }
            ],
            "name": "setApprovalForAll",
            "outputs": [],
            "stateMutability": "nonpayable",
            "type": "function"
        },
        {
            "inputs": [
                {
                    "internalType": "bytes4",
                    "name": "interfaceId",
                    "type": "bytes4"
                }
            ],
            "name": "supportsInterface",
            "outputs": [
                {
                    "internalType": "bool",
                    "name": "",
                    "type": "bool"
                }
            ],
            "stateMutability": "view",
            "type": "function"
        },
        {
            "inputs": [],
            "name": "symbol",
            "outputs": [
                {
                    "internalType": "string",
                    "name": "",
                    "type": "string"
                }
            ],
            "stateMutability": "view",
            "type": "function"
        },
        {
            "inputs": [
                {
                    "internalType": "uint256",
                    "name": "tokenId",
                    "type": "uint256"
                }
            ],
            "name": "tokenURI",
            "outputs": [
                {
                    "internalType": "string",
                    "name": "",
                    "type": "string"
                }
            ],
            "stateMutability": "view",
            "type": "function"
        },
        {
            "inputs": [
                {
                    "internalType": "address",
                    "name": "from",
                    "type": "address"
                },
                {
                    "internalType": "address",
                    "name": "to",
                    "type": "address"
                },
                {
                    "internalType": "uint256",
                    "name": "tokenId",
                    "type": "uint256"
                }
            ],
            "name": "transferFrom",
            "outputs": [],
            "stateMutability": "nonpayable",
            "type": "function"
        }
    ],
    "bytecode": "0x608060405260405180610100016040528060da81526020016200485b60da9139600890805190602001906200003692919062000867565b506040518060800160405280605681526020016200493560569139600990805190602001906200006892919062000867565b506040518060c001604052806040518060400160405280600381526020017f426967000000000000000000000000000000000000000000000000000000000081525081526020016040518060400160405280600581526020017f536d616c6c00000000000000000000000000000000000000000000000000000081525081526020016040518060400160405280600481526020017f4c6f6e670000000000000000000000000000000000000000000000000000000081525081526020016040518060400160405280600581526020017f53686f727400000000000000000000000000000000000000000000000000000081525081526020016040518060400160405280600581526020017f4769616e7400000000000000000000000000000000000000000000000000000081525081526020016040518060400160405280600481526020017f54696e7900000000000000000000000000000000000000000000000000000000815250815250600a906006620001e6929190620008f8565b506040518060c001604052806040518060400160405280600381526020017f466174000000000000000000000000000000000000000000000000000000000081525081526020016040518060400160405280600681526020017f536b696e6e79000000000000000000000000000000000000000000000000000081525081526020016040518060400160405280600b81526020017f53706563746163756c617200000000000000000000000000000000000000000081525081526020016040518060400160405280600481526020017f4765656b0000000000000000000000000000000000000000000000000000000081525081526020016040518060400160405280600481526020017f486172640000000000000000000000000000000000000000000000000000000081525081526020016040518060400160405280600481526020017f536f667400000000000000000000000000000000000000000000000000000000815250815250600b90600662000364929190620008f8565b506040518060c001604052806040518060400160405280600381526020017f4a6f65000000000000000000000000000000000000000000000000000000000081525081526020016040518060400160405280600581526020017f427275636500000000000000000000000000000000000000000000000000000081525081526020016040518060400160405280600781526020017f446f6d696e69630000000000000000000000000000000000000000000000000081525081526020016040518060400160405280600581526020017f4a61636f6200000000000000000000000000000000000000000000000000000081525081526020016040518060400160405280600581526020017f436173657900000000000000000000000000000000000000000000000000000081525081526020016040518060400160405280600581526020017f4e6967656c000000000000000000000000000000000000000000000000000000815250815250600c906006620004e2929190620008f8565b506040518060e001604052806040518060400160405280600781526020017f233036324333300000000000000000000000000000000000000000000000000081525081526020016040518060400160405280600781526020017f233138304130410000000000000000000000000000000000000000000000000081525081526020016040518060400160405280600781526020017f234534353832360000000000000000000000000000000000000000000000000081525081526020016040518060400160405280600781526020017f233633303630360000000000000000000000000000000000000000000000000081525081526020016040518060400160405280600681526020017f464642373242000000000000000000000000000000000000000000000000000081525081526020016040518060400160405280600781526020017f233336313530300000000000000000000000000000000000000000000000000081525081526020016040518060400160405280600781526020017f2334363445324500000000000000000000000000000000000000000000000000815250815250600d9060076200069b9291906200095f565b50348015620006a957600080fd5b506040518060400160405280600981526020017f5371756172654e465400000000000000000000000000000000000000000000008152506040518060400160405280600681526020017f535155415245000000000000000000000000000000000000000000000000000081525081600090805190602001906200072e92919062000867565b5080600190805190602001906200074792919062000867565b505050620007956040518060400160405280601e81526020017f54686973206973206d79204e465420636f6e74726163742e2057686f612100008152506200079b60201b620011fe1760201c565b62000b80565b6200083b81604051602401620007b2919062000a94565b6040516020818303038152906040527f41304fac000000000000000000000000000000000000000000000000000000007bffffffffffffffffffffffffffffffffffffffffffffffffffffffff19166020820180517bffffffffffffffffffffffffffffffffffffffffffffffffffffffff83818316178352505050506200083e60201b60201c565b50565b60008151905060006a636f6e736f6c652e6c6f679050602083016000808483855afa5050505050565b828054620008759062000b0a565b90600052602060002090601f016020900481019282620008995760008555620008e5565b82601f10620008b457805160ff1916838001178555620008e5565b82800160010185558215620008e5579182015b82811115620008e4578251825591602001919060010190620008c7565b5b509050620008f49190620009c6565b5090565b8280548282559060005260206000209081019282156200094c579160200282015b828111156200094b5782518290805190602001906200093a92919062000867565b509160200191906001019062000919565b5b5090506200095b9190620009e5565b5090565b828054828255906000526020600020908101928215620009b3579160200282015b82811115620009b2578251829080519060200190620009a192919062000867565b509160200191906001019062000980565b5b509050620009c29190620009e5565b5090565b5b80821115620009e1576000816000905550600101620009c7565b5090565b5b8082111562000a095760008181620009ff919062000a0d565b50600101620009e6565b5090565b50805462000a1b9062000b0a565b6000825580601f1062000a2f575062000a50565b601f01602090049060005260206000209081019062000a4f9190620009c6565b5b50565b600062000a608262000ab8565b62000a6c818562000ac3565b935062000a7e81856020860162000ad4565b62000a898162000b6f565b840191505092915050565b6000602082019050818103600083015262000ab0818462000a53565b905092915050565b600081519050919050565b600082825260208201905092915050565b60005b8381101562000af457808201518184015260208101905062000ad7565b8381111562000b04576000848401525b50505050565b6000600282049050600182168062000b2357607f821691505b6020821081141562000b3a5762000b3962000b40565b5b50919050565b7f4e487b7100000000000000000000000000000000000000000000000000000000600052602260045260246000fd5b6000601f19601f8301169050919050565b613ccb8062000b906000396000f3fe608060405234801561001057600080fd5b50600436106101165760003560e01c80637bb1b974116100a2578063c87b56dd11610071578063c87b56dd14610303578063de9d132f14610333578063e985e9c51461033d578063f3838e291461036d578063f9f431e41461039d57610116565b80637bb1b9741461027d57806395d89b41146102ad578063a22cb465146102cb578063b88d4fde146102e757610116565b806323b872dd116100e957806323b872dd146101b557806342842e0e146101d157806352fac0c8146101ed5780636352211e1461021d57806370a082311461024d57610116565b806301ffc9a71461011b57806306fdde031461014b578063081812fc14610169578063095ea7b314610199575b600080fd5b610135600480360381019061013091906125dc565b6103cd565b6040516101429190612db9565b60405180910390f35b6101536104af565b6040516101609190612dd4565b60405180910390f35b610183600480360381019061017e9190612636565b610541565b6040516101909190612d29565b60405180910390f35b6101b360048036038101906101ae919061259c565b6105c6565b005b6101cf60048036038101906101ca9190612486565b6106de565b005b6101eb60048036038101906101e69190612486565b61073e565b005b61020760048036038101906102029190612636565b61075e565b6040516102149190612dd4565b60405180910390f35b61023760048036038101906102329190612636565b610856565b6040516102449190612d29565b60405180910390f35b61026760048036038101906102629190612419565b610908565b6040516102749190613054565b60405180910390f35b61029760048036038101906102929190612636565b6109c0565b6040516102a49190612dd4565b60405180910390f35b6102b5610ab8565b6040516102c29190612dd4565b60405180910390f35b6102e560048036038101906102e0919061255c565b610b4a565b005b61030160048036038101906102fc91906124d9565b610b60565b005b61031d60048036038101906103189190612636565b610bc2565b60405161032a9190612dd4565b60405180910390f35b61033b610d14565b005b61035760048036038101906103529190612446565b610f7a565b6040516103649190612db9565b60405180910390f35b61038760048036038101906103829190612636565b61100e565b6040516103949190612dd4565b60405180910390f35b6103b760048036038101906103b29190612636565b611106565b6040516103c49190612dd4565b60405180910390f35b60007f80ac58cd000000000000000000000000000000000000000000000000000000007bffffffffffffffffffffffffffffffffffffffffffffffffffffffff1916827bffffffffffffffffffffffffffffffffffffffffffffffffffffffff1916148061049857507f5b5e139f000000000000000000000000000000000000000000000000000000007bffffffffffffffffffffffffffffffffffffffffffffffffffffffff1916827bffffffffffffffffffffffffffffffffffffffffffffffffffffffff1916145b806104a857506104a782611297565b5b9050919050565b6060600080546104be906132e8565b80601f01602080910402602001604051908101604052809291908181526020018280546104ea906132e8565b80156105375780601f1061050c57610100808354040283529160200191610537565b820191906000526020600020905b81548152906001019060200180831161051a57829003601f168201915b5050505050905090565b600061054c82611301565b61058b576040517f08c379a000000000000000000000000000000000000000000000000000000000815260040161058290612fd4565b60405180910390fd5b6004600083815260200190815260200160002060009054906101000a900473ffffffffffffffffffffffffffffffffffffffff169050919050565b60006105d182610856565b90508073ffffffffffffffffffffffffffffffffffffffff168373ffffffffffffffffffffffffffffffffffffffff161415610642576040517f08c379a000000000000000000000000000000000000000000000000000000000815260040161063990613014565b60405180910390fd5b8073ffffffffffffffffffffffffffffffffffffffff1661066161136d565b73ffffffffffffffffffffffffffffffffffffffff161480610690575061068f8161068a61136d565b610f7a565b5b6106cf576040517f08c379a00000000000000000000000000000000000000000000000000000000081526004016106c690612ef4565b60405180910390fd5b6106d98383611375565b505050565b6106ef6106e961136d565b8261142e565b61072e576040517f08c379a000000000000000000000000000000000000000000000000000000000815260040161072590613034565b60405180910390fd5b61073983838361150c565b505050565b61075983838360405180602001604052806000815250610b60565b505050565b6060600061079261076e84611773565b60405160200161077e9190612c3a565b6040516020818303038152906040526118d4565b9050600c80549050816107a59190613394565b9050600c81815481106107bb576107ba613452565b5b9060005260206000200180546107d0906132e8565b80601f01602080910402602001604051908101604052809291908181526020018280546107fc906132e8565b80156108495780601f1061081e57610100808354040283529160200191610849565b820191906000526020600020905b81548152906001019060200180831161082c57829003601f168201915b5050505050915050919050565b6000806002600084815260200190815260200160002060009054906101000a900473ffffffffffffffffffffffffffffffffffffffff169050600073ffffffffffffffffffffffffffffffffffffffff168173ffffffffffffffffffffffffffffffffffffffff1614156108ff576040517f08c379a00000000000000000000000000000000000000000000000000000000081526004016108f690612f34565b60405180910390fd5b80915050919050565b60008073ffffffffffffffffffffffffffffffffffffffff168273ffffffffffffffffffffffffffffffffffffffff161415610979576040517f08c379a000000000000000000000000000000000000000000000000000000000815260040161097090612f14565b60405180910390fd5b600360008373ffffffffffffffffffffffffffffffffffffffff1673ffffffffffffffffffffffffffffffffffffffff168152602001908152602001600020549050919050565b606060006109f46109d084611773565b6040516020016109e09190612d07565b6040516020818303038152906040526118d4565b9050600d8054905081610a079190613394565b9050600d8181548110610a1d57610a1c613452565b5b906000526020600020018054610a32906132e8565b80601f0160208091040260200160405190810160405280929190818152602001828054610a5e906132e8565b8015610aab5780601f10610a8057610100808354040283529160200191610aab565b820191906000526020600020905b815481529060010190602001808311610a8e57829003601f168201915b5050505050915050919050565b606060018054610ac7906132e8565b80601f0160208091040260200160405190810160405280929190818152602001828054610af3906132e8565b8015610b405780601f10610b1557610100808354040283529160200191610b40565b820191906000526020600020905b815481529060010190602001808311610b2357829003601f168201915b5050505050905090565b610b5c610b5561136d565b8383611907565b5050565b610b71610b6b61136d565b8361142e565b610bb0576040517f08c379a0000000000000000000000000000000000000000000000000000000008152600401610ba790613034565b60405180910390fd5b610bbc84848484611a74565b50505050565b6060610bcd82611301565b610c0c576040517f08c379a0000000000000000000000000000000000000000000000000000000008152600401610c0390612fb4565b60405180910390fd5b6000600660008481526020019081526020016000208054610c2c906132e8565b80601f0160208091040260200160405190810160405280929190818152602001828054610c58906132e8565b8015610ca55780601f10610c7a57610100808354040283529160200191610ca5565b820191906000526020600020905b815481529060010190602001808311610c8857829003601f168201915b505050505090506000610cb6611ad0565b9050600081511415610ccc578192505050610d0f565b600082511115610d01578082604051602001610ce9929190612b7a565b60405160208183030381529060405292505050610d0f565b610d0a84611ae7565b925050505b919050565b6032610d206007611b8e565b1115610d61576040517f08c379a0000000000000000000000000000000000000000000000000000000008152600401610d5890612f74565b60405180910390fd5b6000610d6d6007611b8e565b90506000610d7a8261100e565b90506000610d8783611106565b90506000610d948461075e565b90506000838383604051602001610dad93929190612b9e565b60405160208183030381529060405290506000610dc9866109c0565b90506000600882600985604051602001610de69493929190612bcf565b60405160208183030381529060405290506000610e2b84610e0684611b9c565b604051602001610e17929190612c7e565b604051602081830303815290604052611b9c565b9050600081604051602001610e409190612ce5565b6040516020818303038152906040529050610e8f6040518060400160405280601c81526020017f0a2d2d2d2d2d2d2d2d2d2d2d2d2d2d2d2d2d2d2d2d2d2d2d2d2d2d2d000000008152506111fe565b610eb781604051602001610ea39190612c18565b6040516020818303038152906040526111fe565b610ef56040518060400160405280601c81526020017f2d2d2d2d2d2d2d2d2d2d2d2d2d2d2d2d2d2d2d2d2d2d2d2d2d2d2d0a000000008152506111fe565b610eff338a611d34565b610f098982611d52565b610f136007611dc6565b610f36604051806060016040528060258152602001613c31602591398a33611ddc565b7febb98688741ffa4c7589bf325de30cf7becb63de567842e1ccdb6cb949fdc82c338a604051610f67929190612d90565b60405180910390a1505050505050505050565b6000600560008473ffffffffffffffffffffffffffffffffffffffff1673ffffffffffffffffffffffffffffffffffffffff16815260200190815260200160002060008373ffffffffffffffffffffffffffffffffffffffff1673ffffffffffffffffffffffffffffffffffffffff16815260200190815260200160002060009054906101000a900460ff16905092915050565b6060600061104261101e84611773565b60405160200161102e9190612cc3565b6040516020818303038152906040526118d4565b9050600a80549050816110559190613394565b9050600a818154811061106b5761106a613452565b5b906000526020600020018054611080906132e8565b80601f01602080910402602001604051908101604052809291908181526020018280546110ac906132e8565b80156110f95780601f106110ce576101008083540402835291602001916110f9565b820191906000526020600020905b8154815290600101906020018083116110dc57829003601f168201915b5050505050915050919050565b6060600061113a61111684611773565b6040516020016111269190612c5c565b6040516020818303038152906040526118d4565b9050600b805490508161114d9190613394565b9050600b818154811061116357611162613452565b5b906000526020600020018054611178906132e8565b80601f01602080910402602001604051908101604052809291908181526020018280546111a4906132e8565b80156111f15780601f106111c6576101008083540402835291602001916111f1565b820191906000526020600020905b8154815290600101906020018083116111d457829003601f168201915b5050505050915050919050565b611294816040516024016112129190612dd4565b6040516020818303038152906040527f41304fac000000000000000000000000000000000000000000000000000000007bffffffffffffffffffffffffffffffffffffffffffffffffffffffff19166020820180517bffffffffffffffffffffffffffffffffffffffffffffffffffffffff8381831617835250505050611e7b565b50565b60007f01ffc9a7000000000000000000000000000000000000000000000000000000007bffffffffffffffffffffffffffffffffffffffffffffffffffffffff1916827bffffffffffffffffffffffffffffffffffffffffffffffffffffffff1916149050919050565b60008073ffffffffffffffffffffffffffffffffffffffff166002600084815260200190815260200160002060009054906101000a900473ffffffffffffffffffffffffffffffffffffffff1673ffffffffffffffffffffffffffffffffffffffff1614159050919050565b600033905090565b816004600083815260200190815260200160002060006101000a81548173ffffffffffffffffffffffffffffffffffffffff021916908373ffffffffffffffffffffffffffffffffffffffff160217905550808273ffffffffffffffffffffffffffffffffffffffff166113e883610856565b73ffffffffffffffffffffffffffffffffffffffff167f8c5be1e5ebec7d5bd14f71427d1e84f3dd0314c0f7b2291e5b200ac8c7c3b92560405160405180910390a45050565b600061143982611301565b611478576040517f08c379a000000000000000000000000000000000000000000000000000000000815260040161146f90612ed4565b60405180910390fd5b600061148383610856565b90508073ffffffffffffffffffffffffffffffffffffffff168473ffffffffffffffffffffffffffffffffffffffff1614806114f257508373ffffffffffffffffffffffffffffffffffffffff166114da84610541565b73ffffffffffffffffffffffffffffffffffffffff16145b8061150357506115028185610f7a565b5b91505092915050565b8273ffffffffffffffffffffffffffffffffffffffff1661152c82610856565b73ffffffffffffffffffffffffffffffffffffffff1614611582576040517f08c379a000000000000000000000000000000000000000000000000000000000815260040161157990612e54565b60405180910390fd5b600073ffffffffffffffffffffffffffffffffffffffff168273ffffffffffffffffffffffffffffffffffffffff1614156115f2576040517f08c379a00000000000000000000000000000000000000000000000000000000081526004016115e990612e94565b60405180910390fd5b6115fd838383611ea4565b611608600082611375565b6001600360008573ffffffffffffffffffffffffffffffffffffffff1673ffffffffffffffffffffffffffffffffffffffff168152602001908152602001600020600082825461165891906131fe565b925050819055506001600360008473ffffffffffffffffffffffffffffffffffffffff1673ffffffffffffffffffffffffffffffffffffffff16815260200190815260200160002060008282546116af919061311d565b92505081905550816002600083815260200190815260200160002060006101000a81548173ffffffffffffffffffffffffffffffffffffffff021916908373ffffffffffffffffffffffffffffffffffffffff160217905550808273ffffffffffffffffffffffffffffffffffffffff168473ffffffffffffffffffffffffffffffffffffffff167fddf252ad1be2c89b69c2b068fc378daa952ba7f163c4a11628f55a4df523b3ef60405160405180910390a461176e838383611ea9565b505050565b606060008214156117bb576040518060400160405280600181526020017f300000000000000000000000000000000000000000000000000000000000000081525090506118cf565b600082905060005b600082146117ed5780806117d69061334b565b915050600a826117e69190613173565b91506117c3565b60008167ffffffffffffffff81111561180957611808613481565b5b6040519080825280601f01601f19166020018201604052801561183b5781602001600182028036833780820191505090505b5090505b600085146118c85760018261185491906131fe565b9150600a856118639190613394565b603061186f919061311d565b60f81b81838151811061188557611884613452565b5b60200101907effffffffffffffffffffffffffffffffffffffffffffffffffffffffffffff1916908160001a905350600a856118c19190613173565b945061183f565b8093505050505b919050565b6000816040516020016118e79190612b63565b6040516020818303038152906040528051906020012060001c9050919050565b8173ffffffffffffffffffffffffffffffffffffffff168373ffffffffffffffffffffffffffffffffffffffff161415611976576040517f08c379a000000000000000000000000000000000000000000000000000000000815260040161196d90612eb4565b60405180910390fd5b80600560008573ffffffffffffffffffffffffffffffffffffffff1673ffffffffffffffffffffffffffffffffffffffff16815260200190815260200160002060008473ffffffffffffffffffffffffffffffffffffffff1673ffffffffffffffffffffffffffffffffffffffff16815260200190815260200160002060006101000a81548160ff0219169083151502179055508173ffffffffffffffffffffffffffffffffffffffff168373ffffffffffffffffffffffffffffffffffffffff167f17307eab39ab6107e8899845ad3d59bd9653f200f220920489ca2b5937696c3183604051611a679190612db9565b60405180910390a3505050565b611a7f84848461150c565b611a8b84848484611eae565b611aca576040517f08c379a0000000000000000000000000000000000000000000000000000000008152600401611ac190612e34565b60405180910390fd5b50505050565b606060405180602001604052806000815250905090565b6060611af282611301565b611b31576040517f08c379a0000000000000000000000000000000000000000000000000000000008152600401611b2890612ff4565b60405180910390fd5b6000611b3b611ad0565b90506000815111611b5b5760405180602001604052806000815250611b86565b80611b6584611773565b604051602001611b76929190612b7a565b6040516020818303038152906040525b915050919050565b600081600001549050919050565b60606000825190506000811415611bc55760405180602001604052806000815250915050611d2f565b60006003600283611bd6919061311d565b611be09190613173565b6004611bec91906131a4565b90506000602082611bfd919061311d565b67ffffffffffffffff811115611c1657611c15613481565b5b6040519080825280601f01601f191660200182016040528015611c485781602001600182028036833780820191505090505b5090506000604051806060016040528060408152602001613c56604091399050600181016020830160005b86811015611cec5760038101905062ffffff818a015116603f8160121c168401518060081b905060ff603f83600c1c1686015116810190508060081b905060ff603f8360061c1686015116810190508060081b905060ff603f831686015116810190508060e01b90508084526004840193505050611c73565b506003860660018114611d065760028114611d1657611d21565b613d3d60f01b6002830352611d21565b603d60f81b60018303525b508484525050819450505050505b919050565b611d4e828260405180602001604052806000815250612045565b5050565b611d5b82611301565b611d9a576040517f08c379a0000000000000000000000000000000000000000000000000000000008152600401611d9190612f54565b60405180910390fd5b80600660008481526020019081526020016000209080519060200190611dc192919061229d565b505050565b6001816000016000828254019250508190555050565b611e76838383604051602401611df493929190612df6565b6040516020818303038152906040527fe3849f79000000000000000000000000000000000000000000000000000000007bffffffffffffffffffffffffffffffffffffffffffffffffffffffff19166020820180517bffffffffffffffffffffffffffffffffffffffffffffffffffffffff8381831617835250505050611e7b565b505050565b60008151905060006a636f6e736f6c652e6c6f679050602083016000808483855afa5050505050565b505050565b505050565b6000611ecf8473ffffffffffffffffffffffffffffffffffffffff166120a0565b15612038578373ffffffffffffffffffffffffffffffffffffffff1663150b7a02611ef861136d565b8786866040518563ffffffff1660e01b8152600401611f1a9493929190612d44565b602060405180830381600087803b158015611f3457600080fd5b505af1925050508015611f6557506040513d601f19601f82011682018060405250810190611f629190612609565b60015b611fe8573d8060008114611f95576040519150601f19603f3d011682016040523d82523d6000602084013e611f9a565b606091505b50600081511415611fe0576040517f08c379a0000000000000000000000000000000000000000000000000000000008152600401611fd790612e34565b60405180910390fd5b805181602001fd5b63150b7a0260e01b7bffffffffffffffffffffffffffffffffffffffffffffffffffffffff1916817bffffffffffffffffffffffffffffffffffffffffffffffffffffffff19161491505061203d565b600190505b949350505050565b61204f83836120c3565b61205c6000848484611eae565b61209b576040517f08c379a000000000000000000000000000000000000000000000000000000000815260040161209290612e34565b60405180910390fd5b505050565b6000808273ffffffffffffffffffffffffffffffffffffffff163b119050919050565b600073ffffffffffffffffffffffffffffffffffffffff168273ffffffffffffffffffffffffffffffffffffffff161415612133576040517f08c379a000000000000000000000000000000000000000000000000000000000815260040161212a90612f94565b60405180910390fd5b61213c81611301565b1561217c576040517f08c379a000000000000000000000000000000000000000000000000000000000815260040161217390612e74565b60405180910390fd5b61218860008383611ea4565b6001600360008473ffffffffffffffffffffffffffffffffffffffff1673ffffffffffffffffffffffffffffffffffffffff16815260200190815260200160002060008282546121d8919061311d565b92505081905550816002600083815260200190815260200160002060006101000a81548173ffffffffffffffffffffffffffffffffffffffff021916908373ffffffffffffffffffffffffffffffffffffffff160217905550808273ffffffffffffffffffffffffffffffffffffffff16600073ffffffffffffffffffffffffffffffffffffffff167fddf252ad1be2c89b69c2b068fc378daa952ba7f163c4a11628f55a4df523b3ef60405160405180910390a461229960008383611ea9565b5050565b8280546122a9906132e8565b90600052602060002090601f0160209004810192826122cb5760008555612312565b82601f106122e457805160ff1916838001178555612312565b82800160010185558215612312579182015b828111156123115782518255916020019190600101906122f6565b5b50905061231f9190612323565b5090565b5b8082111561233c576000816000905550600101612324565b5090565b600061235361234e84613094565b61306f565b90508281526020810184848401111561236f5761236e6134b5565b5b61237a8482856132a6565b509392505050565b60008135905061239181613bd4565b92915050565b6000813590506123a681613beb565b92915050565b6000813590506123bb81613c02565b92915050565b6000815190506123d081613c02565b92915050565b600082601f8301126123eb576123ea6134b0565b5b81356123fb848260208601612340565b91505092915050565b60008135905061241381613c19565b92915050565b60006020828403121561242f5761242e6134bf565b5b600061243d84828501612382565b91505092915050565b6000806040838503121561245d5761245c6134bf565b5b600061246b85828601612382565b925050602061247c85828601612382565b9150509250929050565b60008060006060848603121561249f5761249e6134bf565b5b60006124ad86828701612382565b93505060206124be86828701612382565b92505060406124cf86828701612404565b9150509250925092565b600080600080608085870312156124f3576124f26134bf565b5b600061250187828801612382565b945050602061251287828801612382565b935050604061252387828801612404565b925050606085013567ffffffffffffffff811115612544576125436134ba565b5b612550878288016123d6565b91505092959194509250565b60008060408385031215612573576125726134bf565b5b600061258185828601612382565b925050602061259285828601612397565b9150509250929050565b600080604083850312156125b3576125b26134bf565b5b60006125c185828601612382565b92505060206125d285828601612404565b9150509250929050565b6000602082840312156125f2576125f16134bf565b5b6000612600848285016123ac565b91505092915050565b60006020828403121561261f5761261e6134bf565b5b600061262d848285016123c1565b91505092915050565b60006020828403121561264c5761264b6134bf565b5b600061265a84828501612404565b91505092915050565b61266c81613232565b82525050565b61267b81613244565b82525050565b600061268c826130da565b61269681856130f0565b93506126a68185602086016132b5565b6126af816134c4565b840191505092915050565b60006126c5826130e5565b6126cf8185613101565b93506126df8185602086016132b5565b6126e8816134c4565b840191505092915050565b60006126fe826130e5565b6127088185613112565b93506127188185602086016132b5565b80840191505092915050565b60008154612731816132e8565b61273b8186613112565b9450600182166000811461275657600181146127675761279a565b60ff1983168652818601935061279a565b612770856130c5565b60005b8381101561279257815481890152600182019150602081019050612773565b838801955050505b50505092915050565b60006127b0602583613112565b91506127bb826134d5565b602582019050919050565b60006127d3603283613101565b91506127de82613524565b604082019050919050565b60006127f6602583613101565b915061280182613573565b604082019050919050565b6000612819601c83613101565b9150612824826135c2565b602082019050919050565b600061283c600a83613112565b9150612847826135eb565b600a82019050919050565b600061285f602483613101565b915061286a82613614565b604082019050919050565b6000612882601983613101565b915061288d82613663565b602082019050919050565b60006128a5600b83613112565b91506128b08261368c565b600b82019050919050565b60006128c8602c83613101565b91506128d3826136b5565b604082019050919050565b60006128eb600d83613112565b91506128f682613704565b600d82019050919050565b600061290e603883613101565b91506129198261372d565b604082019050919050565b6000612931602a83613101565b915061293c8261377c565b604082019050919050565b6000612954602983613101565b915061295f826137cb565b604082019050919050565b6000612977602e83613101565b91506129828261381a565b604082019050919050565b600061299a600283613112565b91506129a582613869565b600282019050919050565b60006129bd602183613101565b91506129c882613892565b604082019050919050565b60006129e0602083613101565b91506129eb826138e1565b602082019050919050565b6000612a03603183613101565b9150612a0e8261390a565b604082019050919050565b6000612a26602c83613101565b9150612a3182613959565b604082019050919050565b6000612a49606b83613112565b9150612a54826139a8565b606b82019050919050565b6000612a6c602f83613101565b9150612a7782613a43565b604082019050919050565b6000612a8f600a83613112565b9150612a9a82613a92565b600a82019050919050565b6000612ab2602183613101565b9150612abd82613abb565b604082019050919050565b6000612ad5600a83613112565b9150612ae082613b0a565b600a82019050919050565b6000612af8601d83613112565b9150612b0382613b33565b601d82019050919050565b6000612b1b603183613101565b9150612b2682613b5c565b604082019050919050565b6000612b3e600583613112565b9150612b4982613bab565b600582019050919050565b612b5d8161329c565b82525050565b6000612b6f82846126f3565b915081905092915050565b6000612b8682856126f3565b9150612b9282846126f3565b91508190509392505050565b6000612baa82866126f3565b9150612bb682856126f3565b9150612bc282846126f3565b9150819050949350505050565b6000612bdb8287612724565b9150612be782866126f3565b9150612bf38285612724565b9150612bff82846126f3565b9150612c0a826128de565b915081905095945050505050565b6000612c23826127a3565b9150612c2f82846126f3565b915081905092915050565b6000612c458261282f565b9150612c5182846126f3565b915081905092915050565b6000612c6782612898565b9150612c7382846126f3565b915081905092915050565b6000612c8982612a82565b9150612c9582856126f3565b9150612ca082612a3c565b9150612cac82846126f3565b9150612cb78261298d565b91508190509392505050565b6000612cce82612ac8565b9150612cda82846126f3565b915081905092915050565b6000612cf082612aeb565b9150612cfc82846126f3565b915081905092915050565b6000612d1282612b31565b9150612d1e82846126f3565b915081905092915050565b6000602082019050612d3e6000830184612663565b92915050565b6000608082019050612d596000830187612663565b612d666020830186612663565b612d736040830185612b54565b8181036060830152612d858184612681565b905095945050505050565b6000604082019050612da56000830185612663565b612db26020830184612b54565b9392505050565b6000602082019050612dce6000830184612672565b92915050565b60006020820190508181036000830152612dee81846126ba565b905092915050565b60006060820190508181036000830152612e1081866126ba565b9050612e1f6020830185612b54565b612e2c6040830184612663565b949350505050565b60006020820190508181036000830152612e4d816127c6565b9050919050565b60006020820190508181036000830152612e6d816127e9565b9050919050565b60006020820190508181036000830152612e8d8161280c565b9050919050565b60006020820190508181036000830152612ead81612852565b9050919050565b60006020820190508181036000830152612ecd81612875565b9050919050565b60006020820190508181036000830152612eed816128bb565b9050919050565b60006020820190508181036000830152612f0d81612901565b9050919050565b60006020820190508181036000830152612f2d81612924565b9050919050565b60006020820190508181036000830152612f4d81612947565b9050919050565b60006020820190508181036000830152612f6d8161296a565b9050919050565b60006020820190508181036000830152612f8d816129b0565b9050919050565b60006020820190508181036000830152612fad816129d3565b9050919050565b60006020820190508181036000830152612fcd816129f6565b9050919050565b60006020820190508181036000830152612fed81612a19565b9050919050565b6000602082019050818103600083015261300d81612a5f565b9050919050565b6000602082019050818103600083015261302d81612aa5565b9050919050565b6000602082019050818103600083015261304d81612b0e565b9050919050565b60006020820190506130696000830184612b54565b92915050565b600061307961308a565b9050613085828261331a565b919050565b6000604051905090565b600067ffffffffffffffff8211156130af576130ae613481565b5b6130b8826134c4565b9050602081019050919050565b60008190508160005260206000209050919050565b600081519050919050565b600081519050919050565b600082825260208201905092915050565b600082825260208201905092915050565b600081905092915050565b60006131288261329c565b91506131338361329c565b9250827fffffffffffffffffffffffffffffffffffffffffffffffffffffffffffffffff03821115613168576131676133c5565b5b828201905092915050565b600061317e8261329c565b91506131898361329c565b925082613199576131986133f4565b5b828204905092915050565b60006131af8261329c565b91506131ba8361329c565b9250817fffffffffffffffffffffffffffffffffffffffffffffffffffffffffffffffff04831182151516156131f3576131f26133c5565b5b828202905092915050565b60006132098261329c565b91506132148361329c565b925082821015613227576132266133c5565b5b828203905092915050565b600061323d8261327c565b9050919050565b60008115159050919050565b60007fffffffff0000000000000000000000000000000000000000000000000000000082169050919050565b600073ffffffffffffffffffffffffffffffffffffffff82169050919050565b6000819050919050565b82818337600083830152505050565b60005b838110156132d35780820151818401526020810190506132b8565b838111156132e2576000848401525b50505050565b6000600282049050600182168061330057607f821691505b6020821081141561331457613313613423565b5b50919050565b613323826134c4565b810181811067ffffffffffffffff8211171561334257613341613481565b5b80604052505050565b60006133568261329c565b91507fffffffffffffffffffffffffffffffffffffffffffffffffffffffffffffffff821415613389576133886133c5565b5b600182019050919050565b600061339f8261329c565b91506133aa8361329c565b9250826133ba576133b96133f4565b5b828206905092915050565b7f4e487b7100000000000000000000000000000000000000000000000000000000600052601160045260246000fd5b7f4e487b7100000000000000000000000000000000000000000000000000000000600052601260045260246000fd5b7f4e487b7100000000000000000000000000000000000000000000000000000000600052602260045260246000fd5b7f4e487b7100000000000000000000000000000000000000000000000000000000600052603260045260246000fd5b7f4e487b7100000000000000000000000000000000000000000000000000000000600052604160045260246000fd5b600080fd5b600080fd5b600080fd5b600080fd5b6000601f19601f8301169050919050565b7f68747470733a2f2f6e6674707265766965772e30786465762e636f6465732f3f60008201527f636f64653d000000000000000000000000000000000000000000000000000000602082015250565b7f4552433732313a207472616e7366657220746f206e6f6e20455243373231526560008201527f63656976657220696d706c656d656e7465720000000000000000000000000000602082015250565b7f4552433732313a207472616e736665722066726f6d20696e636f72726563742060008201527f6f776e6572000000000000000000000000000000000000000000000000000000602082015250565b7f4552433732313a20746f6b656e20616c7265616479206d696e74656400000000600082015250565b7f54484952445f574f524400000000000000000000000000000000000000000000600082015250565b7f4552433732313a207472616e7366657220746f20746865207a65726f2061646460008201527f7265737300000000000000000000000000000000000000000000000000000000602082015250565b7f4552433732313a20617070726f766520746f2063616c6c657200000000000000600082015250565b7f5345434f4e445f574f5244000000000000000000000000000000000000000000600082015250565b7f4552433732313a206f70657261746f7220717565727920666f72206e6f6e657860008201527f697374656e7420746f6b656e0000000000000000000000000000000000000000602082015250565b7f3c2f746578743e3c2f7376673e00000000000000000000000000000000000000600082015250565b7f4552433732313a20617070726f76652063616c6c6572206973206e6f74206f7760008201527f6e6572206e6f7220617070726f76656420666f7220616c6c0000000000000000602082015250565b7f4552433732313a2062616c616e636520717565727920666f7220746865207a6560008201527f726f206164647265737300000000000000000000000000000000000000000000602082015250565b7f4552433732313a206f776e657220717565727920666f72206e6f6e657869737460008201527f656e7420746f6b656e0000000000000000000000000000000000000000000000602082015250565b7f45524337323155524953746f726167653a2055524920736574206f66206e6f6e60008201527f6578697374656e7420746f6b656e000000000000000000000000000000000000602082015250565b7f227d000000000000000000000000000000000000000000000000000000000000600082015250565b7f596f752063616e2774206d696e74206d6f7265207468616e203530204e46547360008201527f2100000000000000000000000000000000000000000000000000000000000000602082015250565b7f4552433732313a206d696e7420746f20746865207a65726f2061646472657373600082015250565b7f45524337323155524953746f726167653a2055524920717565727920666f722060008201527f6e6f6e6578697374656e7420746f6b656e000000000000000000000000000000602082015250565b7f4552433732313a20617070726f76656420717565727920666f72206e6f6e657860008201527f697374656e7420746f6b656e0000000000000000000000000000000000000000602082015250565b7f222c20226465736372697074696f6e223a2022416e204e46542066726f6d207460008201527f686520657069632074687265652d776f72642d636f6d626f20636f6c6c65637460208201527f696f6e2e222c2022696d616765223a2022646174613a696d6167652f7376672b60408201527f786d6c3b6261736536342c000000000000000000000000000000000000000000606082015250565b7f4552433732314d657461646174613a2055524920717565727920666f72206e6f60008201527f6e6578697374656e7420746f6b656e0000000000000000000000000000000000602082015250565b7f7b226e616d65223a202200000000000000000000000000000000000000000000600082015250565b7f4552433732313a20617070726f76616c20746f2063757272656e74206f776e6560008201527f7200000000000000000000000000000000000000000000000000000000000000602082015250565b7f46495253545f574f524400000000000000000000000000000000000000000000600082015250565b7f646174613a6170706c69636174696f6e2f6a736f6e3b6261736536342c000000600082015250565b7f4552433732313a207472616e736665722063616c6c6572206973206e6f74206f60008201527f776e6572206e6f7220617070726f766564000000000000000000000000000000602082015250565b7f434f4c4f52000000000000000000000000000000000000000000000000000000600082015250565b613bdd81613232565b8114613be857600080fd5b50565b613bf481613244565b8114613bff57600080fd5b50565b613c0b81613250565b8114613c1657600080fd5b50565b613c228161329c565b8114613c2d57600080fd5b5056fe416e204e465420772f20494420257320686173206265656e206d696e74656420746f2025734142434445464748494a4b4c4d4e4f505152535455565758595a6162636465666768696a6b6c6d6e6f707172737475767778797a303132333435363738392b2fa2646970667358221220362c3519e1cc79a6049c52cede5d628e9272210d7b688ca746976f8666ce575f64736f6c634300080700333c73766720786d6c6e733d27687474703a2f2f7777772e77332e6f72672f323030302f73766727207072657365727665417370656374526174696f3d27784d696e594d696e206d656574272076696577426f783d273020302033353020333530273e3c7374796c653e2e62617365207b2066696c6c3a20234438443243423b20666f6e742d66616d696c793a2073616e732d73657269663b20666f6e742d73697a653a20323470783b207d3c2f7374796c653e3c726563742077696474683d273130302527206865696768743d2731303025272066696c6c3d27272f3e3c7465787420783d273530252720793d273530252720636c6173733d27626173652720646f6d696e616e742d626173656c696e653d276d6964646c652720746578742d616e63686f723d276d6964646c65273e",
    "linkReferences": {},
    "deployedLinkReferences": {}
}