{
    "_format": "hh-sol-artifact-1",
    "contractName": "MyEpicNFT",
    "sourceName": "contracts/MyEpicNFT.sol",
    "abi": [
        {
            "inputs": [],
            "stateMutability": "nonpayable",
            "type": "constructor"
        },
        {
            "anonymous": false,
            "inputs": [
                {
                    "indexed": true,
                    "internalType": "address",
                    "name": "owner",
                    "type": "address"
                },
                {
                    "indexed": true,
                    "internalType": "address",
                    "name": "approved",
                    "type": "address"
                },
                {
                    "indexed": true,
                    "internalType": "uint256",
                    "name": "tokenId",
                    "type": "uint256"
                }
            ],
            "name": "Approval",
            "type": "event"
        },
        {
            "anonymous": false,
            "inputs": [
                {
                    "indexed": true,
                    "internalType": "address",
                    "name": "owner",
                    "type": "address"
                },
                {
                    "indexed": true,
                    "internalType": "address",
                    "name": "operator",
                    "type": "address"
                },
                {
                    "indexed": false,
                    "internalType": "bool",
                    "name": "approved",
                    "type": "bool"
                }
            ],
            "name": "ApprovalForAll",
            "type": "event"
        },
        {
            "anonymous": false,
            "inputs": [
                {
                    "indexed": false,
                    "internalType": "address",
                    "name": "sender",
                    "type": "address"
                },
                {
                    "indexed": false,
                    "internalType": "uint256",
                    "name": "tokenId",
                    "type": "uint256"
                }
            ],
            "name": "NewEpicNFTMinted",
            "type": "event"
        },
        {
            "anonymous": false,
            "inputs": [
                {
                    "indexed": true,
                    "internalType": "address",
                    "name": "from",
                    "type": "address"
                },
                {
                    "indexed": true,
                    "internalType": "address",
                    "name": "to",
                    "type": "address"
                },
                {
                    "indexed": true,
                    "internalType": "uint256",
                    "name": "tokenId",
                    "type": "uint256"
                }
            ],
            "name": "Transfer",
            "type": "event"
        },
        {
            "inputs": [
                {
                    "internalType": "address",
                    "name": "to",
                    "type": "address"
                },
                {
                    "internalType": "uint256",
                    "name": "tokenId",
                    "type": "uint256"
                }
            ],
            "name": "approve",
            "outputs": [],
            "stateMutability": "nonpayable",
            "type": "function"
        },
        {
            "inputs": [
                {
                    "internalType": "address",
                    "name": "owner",
                    "type": "address"
                }
            ],
            "name": "balanceOf",
            "outputs": [
                {
                    "internalType": "uint256",
                    "name": "",
                    "type": "uint256"
                }
            ],
            "stateMutability": "view",
            "type": "function"
        },
        {
            "inputs": [
                {
                    "internalType": "uint256",
                    "name": "tokenId",
                    "type": "uint256"
                }
            ],
            "name": "getApproved",
            "outputs": [
                {
                    "internalType": "address",
                    "name": "",
                    "type": "address"
                }
            ],
            "stateMutability": "view",
            "type": "function"
        },
        {
            "inputs": [
                {
                    "internalType": "address",
                    "name": "owner",
                    "type": "address"
                },
                {
                    "internalType": "address",
                    "name": "operator",
                    "type": "address"
                }
            ],
            "name": "isApprovedForAll",
            "outputs": [
                {
                    "internalType": "bool",
                    "name": "",
                    "type": "bool"
                }
            ],
            "stateMutability": "view",
            "type": "function"
        },
        {
            "inputs": [],
            "name": "makeAnEpicNFT",
            "outputs": [],
            "stateMutability": "nonpayable",
            "type": "function"
        },
        {
            "inputs": [],
            "name": "name",
            "outputs": [
                {
                    "internalType": "string",
                    "name": "",
                    "type": "string"
                }
            ],
            "stateMutability": "view",
            "type": "function"
        },
        {
            "inputs": [
                {
                    "internalType": "uint256",
                    "name": "tokenId",
                    "type": "uint256"
                }
            ],
            "name": "ownerOf",
            "outputs": [
                {
                    "internalType": "address",
                    "name": "",
                    "type": "address"
                }
            ],
            "stateMutability": "view",
            "type": "function"
        },
        {
            "inputs": [
                {
                    "internalType": "uint256",
                    "name": "tokenId",
                    "type": "uint256"
                }
            ],
            "name": "randomColor",
            "outputs": [
                {
                    "internalType": "string",
                    "name": "",
                    "type": "string"
                }
            ],
            "stateMutability": "view",
            "type": "function"
        },
        {
            "inputs": [
                {
                    "internalType": "uint256",
                    "name": "tokenId",
                    "type": "uint256"
                }
            ],
            "name": "randomFirstWord",
            "outputs": [
                {
                    "internalType": "string",
                    "name": "",
                    "type": "string"
                }
            ],
            "stateMutability": "view",
            "type": "function"
        },
        {
            "inputs": [
                {
                    "internalType": "uint256",
                    "name": "tokenId",
                    "type": "uint256"
                }
            ],
            "name": "randomSecondWord",
            "outputs": [
                {
                    "internalType": "string",
                    "name": "",
                    "type": "string"
                }
            ],
            "stateMutability": "view",
            "type": "function"
        },
        {
            "inputs": [
                {
                    "internalType": "uint256",
                    "name": "tokenId",
                    "type": "uint256"
                }
            ],
            "name": "randomThirdWord",
            "outputs": [
                {
                    "internalType": "string",
                    "name": "",
                    "type": "string"
                }
            ],
            "stateMutability": "view",
            "type": "function"
        },
        {
            "inputs": [
                {
                    "internalType": "address",
                    "name": "from",
                    "type": "address"
                },
                {
                    "internalType": "address",
                    "name": "to",
                    "type": "address"
                },
                {
                    "internalType": "uint256",
                    "name": "tokenId",
                    "type": "uint256"
                }
            ],
            "name": "safeTransferFrom",
            "outputs": [],
            "stateMutability": "nonpayable",
            "type": "function"
        },
        {
            "inputs": [
                {
                    "internalType": "address",
                    "name": "from",
                    "type": "address"
                },
                {
                    "internalType": "address",
                    "name": "to",
                    "type": "address"
                },
                {
                    "internalType": "uint256",
                    "name": "tokenId",
                    "type": "uint256"
                },
                {
                    "internalType": "bytes",
                    "name": "_data",
                    "type": "bytes"
                }
            ],
            "name": "safeTransferFrom",
            "outputs": [],
            "stateMutability": "nonpayable",
            "type": "function"
        },
        {
            "inputs": [
                {
                    "internalType": "address",
                    "name": "operator",
                    "type": "address"
                },
                {
                    "internalType": "bool",
                    "name": "approved",
                    "type": "bool"
                }
            ],
            "name": "setApprovalForAll",
            "outputs": [],
            "stateMutability": "nonpayable",
            "type": "function"
        },
        {
            "inputs": [
                {
                    "internalType": "bytes4",
                    "name": "interfaceId",
                    "type": "bytes4"
                }
            ],
            "name": "supportsInterface",
            "outputs": [
                {
                    "internalType": "bool",
                    "name": "",
                    "type": "bool"
                }
            ],
            "stateMutability": "view",
            "type": "function"
        },
        {
            "inputs": [],
            "name": "symbol",
            "outputs": [
                {
                    "internalType": "string",
                    "name": "",
                    "type": "string"
                }
            ],
            "stateMutability": "view",
            "type": "function"
        },
        {
            "inputs": [
                {
                    "internalType": "uint256",
                    "name": "tokenId",
                    "type": "uint256"
                }
            ],
            "name": "tokenURI",
            "outputs": [
                {
                    "internalType": "string",
                    "name": "",
                    "type": "string"
                }
            ],
            "stateMutability": "view",
            "type": "function"
        },
        {
            "inputs": [
                {
                    "internalType": "address",
                    "name": "from",
                    "type": "address"
                },
                {
                    "internalType": "address",
                    "name": "to",
                    "type": "address"
                },
                {
                    "internalType": "uint256",
                    "name": "tokenId",
                    "type": "uint256"
                }
            ],
            "name": "transferFrom",
            "outputs": [],
            "stateMutability": "nonpayable",
            "type": "function"
        }
    ],
    "bytecode": "0x608060405260405180610100016040528060da81526020016200477c60da9139600890805190602001906200003692919062000867565b506040518060800160405280605681526020016200485660569139600990805190602001906200006892919062000867565b506040518060c001604052806040518060400160405280600381526020017f426967000000000000000000000000000000000000000000000000000000000081525081526020016040518060400160405280600581526020017f536d616c6c00000000000000000000000000000000000000000000000000000081525081526020016040518060400160405280600481526020017f4c6f6e670000000000000000000000000000000000000000000000000000000081525081526020016040518060400160405280600581526020017f53686f727400000000000000000000000000000000000000000000000000000081525081526020016040518060400160405280600581526020017f4769616e7400000000000000000000000000000000000000000000000000000081525081526020016040518060400160405280600481526020017f54696e7900000000000000000000000000000000000000000000000000000000815250815250600a906006620001e6929190620008f8565b506040518060c001604052806040518060400160405280600381526020017f466174000000000000000000000000000000000000000000000000000000000081525081526020016040518060400160405280600681526020017f536b696e6e79000000000000000000000000000000000000000000000000000081525081526020016040518060400160405280600b81526020017f53706563746163756c617200000000000000000000000000000000000000000081525081526020016040518060400160405280600481526020017f4765656b0000000000000000000000000000000000000000000000000000000081525081526020016040518060400160405280600481526020017f486172640000000000000000000000000000000000000000000000000000000081525081526020016040518060400160405280600481526020017f536f667400000000000000000000000000000000000000000000000000000000815250815250600b90600662000364929190620008f8565b506040518060c001604052806040518060400160405280600381526020017f4a6f65000000000000000000000000000000000000000000000000000000000081525081526020016040518060400160405280600581526020017f427275636500000000000000000000000000000000000000000000000000000081525081526020016040518060400160405280600781526020017f446f6d696e69630000000000000000000000000000000000000000000000000081525081526020016040518060400160405280600581526020017f4a61636f6200000000000000000000000000000000000000000000000000000081525081526020016040518060400160405280600581526020017f436173657900000000000000000000000000000000000000000000000000000081525081526020016040518060400160405280600581526020017f4e6967656c000000000000000000000000000000000000000000000000000000815250815250600c906006620004e2929190620008f8565b506040518060e001604052806040518060400160405280600781526020017f233036324333300000000000000000000000000000000000000000000000000081525081526020016040518060400160405280600781526020017f233138304130410000000000000000000000000000000000000000000000000081525081526020016040518060400160405280600781526020017f234534353832360000000000000000000000000000000000000000000000000081525081526020016040518060400160405280600781526020017f233633303630360000000000000000000000000000000000000000000000000081525081526020016040518060400160405280600681526020017f464642373242000000000000000000000000000000000000000000000000000081525081526020016040518060400160405280600781526020017f233336313530300000000000000000000000000000000000000000000000000081525081526020016040518060400160405280600781526020017f2334363445324500000000000000000000000000000000000000000000000000815250815250600d9060076200069b9291906200095f565b50348015620006a957600080fd5b506040518060400160405280600981526020017f5371756172654e465400000000000000000000000000000000000000000000008152506040518060400160405280600681526020017f535155415245000000000000000000000000000000000000000000000000000081525081600090805190602001906200072e92919062000867565b5080600190805190602001906200074792919062000867565b505050620007956040518060400160405280601e81526020017f54686973206973206d79204e465420636f6e74726163742e2057686f612100008152506200079b60201b620011b11760201c565b62000b80565b6200083b81604051602401620007b2919062000a94565b6040516020818303038152906040527f41304fac000000000000000000000000000000000000000000000000000000007bffffffffffffffffffffffffffffffffffffffffffffffffffffffff19166020820180517bffffffffffffffffffffffffffffffffffffffffffffffffffffffff83818316178352505050506200083e60201b60201c565b50565b60008151905060006a636f6e736f6c652e6c6f679050602083016000808483855afa5050505050565b828054620008759062000b0a565b90600052602060002090601f016020900481019282620008995760008555620008e5565b82601f10620008b457805160ff1916838001178555620008e5565b82800160010185558215620008e5579182015b82811115620008e4578251825591602001919060010190620008c7565b5b509050620008f49190620009c6565b5090565b8280548282559060005260206000209081019282156200094c579160200282015b828111156200094b5782518290805190602001906200093a92919062000867565b509160200191906001019062000919565b5b5090506200095b9190620009e5565b5090565b828054828255906000526020600020908101928215620009b3579160200282015b82811115620009b2578251829080519060200190620009a192919062000867565b509160200191906001019062000980565b5b509050620009c29190620009e5565b5090565b5b80821115620009e1576000816000905550600101620009c7565b5090565b5b8082111562000a095760008181620009ff919062000a0d565b50600101620009e6565b5090565b50805462000a1b9062000b0a565b6000825580601f1062000a2f575062000a50565b601f01602090049060005260206000209081019062000a4f9190620009c6565b5b50565b600062000a608262000ab8565b62000a6c818562000ac3565b935062000a7e81856020860162000ad4565b62000a898162000b6f565b840191505092915050565b6000602082019050818103600083015262000ab0818462000a53565b905092915050565b600081519050919050565b600082825260208201905092915050565b60005b8381101562000af457808201518184015260208101905062000ad7565b8381111562000b04576000848401525b50505050565b6000600282049050600182168062000b2357607f821691505b6020821081141562000b3a5762000b3962000b40565b5b50919050565b7f4e487b7100000000000000000000000000000000000000000000000000000000600052602260045260246000fd5b6000601f19601f8301169050919050565b613bec8062000b906000396000f3fe608060405234801561001057600080fd5b50600436106101165760003560e01c80637bb1b974116100a2578063c87b56dd11610071578063c87b56dd14610303578063de9d132f14610333578063e985e9c51461033d578063f3838e291461036d578063f9f431e41461039d57610116565b80637bb1b9741461027d57806395d89b41146102ad578063a22cb465146102cb578063b88d4fde146102e757610116565b806323b872dd116100e957806323b872dd146101b557806342842e0e146101d157806352fac0c8146101ed5780636352211e1461021d57806370a082311461024d57610116565b806301ffc9a71461011b57806306fdde031461014b578063081812fc14610169578063095ea7b314610199575b600080fd5b6101356004803603810190610130919061258f565b6103cd565b6040516101429190612d49565b60405180910390f35b6101536104af565b6040516101609190612d64565b60405180910390f35b610183600480360381019061017e91906125e9565b610541565b6040516101909190612cb9565b60405180910390f35b6101b360048036038101906101ae919061254f565b6105c6565b005b6101cf60048036038101906101ca9190612439565b6106de565b005b6101eb60048036038101906101e69190612439565b61073e565b005b610207600480360381019061020291906125e9565b61075e565b6040516102149190612d64565b60405180910390f35b610237600480360381019061023291906125e9565b610856565b6040516102449190612cb9565b60405180910390f35b610267600480360381019061026291906123cc565b610908565b6040516102749190612fc4565b60405180910390f35b610297600480360381019061029291906125e9565b6109c0565b6040516102a49190612d64565b60405180910390f35b6102b5610ab8565b6040516102c29190612d64565b60405180910390f35b6102e560048036038101906102e0919061250f565b610b4a565b005b61030160048036038101906102fc919061248c565b610b60565b005b61031d600480360381019061031891906125e9565b610bc2565b60405161032a9190612d64565b60405180910390f35b61033b610d14565b005b610357600480360381019061035291906123f9565b610f2d565b6040516103649190612d49565b60405180910390f35b610387600480360381019061038291906125e9565b610fc1565b6040516103949190612d64565b60405180910390f35b6103b760048036038101906103b291906125e9565b6110b9565b6040516103c49190612d64565b60405180910390f35b60007f80ac58cd000000000000000000000000000000000000000000000000000000007bffffffffffffffffffffffffffffffffffffffffffffffffffffffff1916827bffffffffffffffffffffffffffffffffffffffffffffffffffffffff1916148061049857507f5b5e139f000000000000000000000000000000000000000000000000000000007bffffffffffffffffffffffffffffffffffffffffffffffffffffffff1916827bffffffffffffffffffffffffffffffffffffffffffffffffffffffff1916145b806104a857506104a78261124a565b5b9050919050565b6060600080546104be90613258565b80601f01602080910402602001604051908101604052809291908181526020018280546104ea90613258565b80156105375780601f1061050c57610100808354040283529160200191610537565b820191906000526020600020905b81548152906001019060200180831161051a57829003601f168201915b5050505050905090565b600061054c826112b4565b61058b576040517f08c379a000000000000000000000000000000000000000000000000000000000815260040161058290612f44565b60405180910390fd5b6004600083815260200190815260200160002060009054906101000a900473ffffffffffffffffffffffffffffffffffffffff169050919050565b60006105d182610856565b90508073ffffffffffffffffffffffffffffffffffffffff168373ffffffffffffffffffffffffffffffffffffffff161415610642576040517f08c379a000000000000000000000000000000000000000000000000000000000815260040161063990612f84565b60405180910390fd5b8073ffffffffffffffffffffffffffffffffffffffff16610661611320565b73ffffffffffffffffffffffffffffffffffffffff161480610690575061068f8161068a611320565b610f2d565b5b6106cf576040517f08c379a00000000000000000000000000000000000000000000000000000000081526004016106c690612e84565b60405180910390fd5b6106d98383611328565b505050565b6106ef6106e9611320565b826113e1565b61072e576040517f08c379a000000000000000000000000000000000000000000000000000000000815260040161072590612fa4565b60405180910390fd5b6107398383836114bf565b505050565b61075983838360405180602001604052806000815250610b60565b505050565b6060600061079261076e84611726565b60405160200161077e9190612bca565b604051602081830303815290604052611887565b9050600c80549050816107a59190613304565b9050600c81815481106107bb576107ba6133c2565b5b9060005260206000200180546107d090613258565b80601f01602080910402602001604051908101604052809291908181526020018280546107fc90613258565b80156108495780601f1061081e57610100808354040283529160200191610849565b820191906000526020600020905b81548152906001019060200180831161082c57829003601f168201915b5050505050915050919050565b6000806002600084815260200190815260200160002060009054906101000a900473ffffffffffffffffffffffffffffffffffffffff169050600073ffffffffffffffffffffffffffffffffffffffff168173ffffffffffffffffffffffffffffffffffffffff1614156108ff576040517f08c379a00000000000000000000000000000000000000000000000000000000081526004016108f690612ec4565b60405180910390fd5b80915050919050565b60008073ffffffffffffffffffffffffffffffffffffffff168273ffffffffffffffffffffffffffffffffffffffff161415610979576040517f08c379a000000000000000000000000000000000000000000000000000000000815260040161097090612ea4565b60405180910390fd5b600360008373ffffffffffffffffffffffffffffffffffffffff1673ffffffffffffffffffffffffffffffffffffffff168152602001908152602001600020549050919050565b606060006109f46109d084611726565b6040516020016109e09190612c97565b604051602081830303815290604052611887565b9050600d8054905081610a079190613304565b9050600d8181548110610a1d57610a1c6133c2565b5b906000526020600020018054610a3290613258565b80601f0160208091040260200160405190810160405280929190818152602001828054610a5e90613258565b8015610aab5780601f10610a8057610100808354040283529160200191610aab565b820191906000526020600020905b815481529060010190602001808311610a8e57829003601f168201915b5050505050915050919050565b606060018054610ac790613258565b80601f0160208091040260200160405190810160405280929190818152602001828054610af390613258565b8015610b405780601f10610b1557610100808354040283529160200191610b40565b820191906000526020600020905b815481529060010190602001808311610b2357829003601f168201915b5050505050905090565b610b5c610b55611320565b83836118ba565b5050565b610b71610b6b611320565b836113e1565b610bb0576040517f08c379a0000000000000000000000000000000000000000000000000000000008152600401610ba790612fa4565b60405180910390fd5b610bbc84848484611a27565b50505050565b6060610bcd826112b4565b610c0c576040517f08c379a0000000000000000000000000000000000000000000000000000000008152600401610c0390612f24565b60405180910390fd5b6000600660008481526020019081526020016000208054610c2c90613258565b80601f0160208091040260200160405190810160405280929190818152602001828054610c5890613258565b8015610ca55780601f10610c7a57610100808354040283529160200191610ca5565b820191906000526020600020905b815481529060010190602001808311610c8857829003601f168201915b505050505090506000610cb6611a83565b9050600081511415610ccc578192505050610d0f565b600082511115610d01578082604051602001610ce9929190612b0a565b60405160208183030381529060405292505050610d0f565b610d0a84611a9a565b925050505b919050565b6000610d206007611b41565b90506000610d2d82610fc1565b90506000610d3a836110b9565b90506000610d478461075e565b90506000838383604051602001610d6093929190612b2e565b60405160208183030381529060405290506000610d7c866109c0565b90506000600882600985604051602001610d999493929190612b5f565b60405160208183030381529060405290506000610dde84610db984611b4f565b604051602001610dca929190612c0e565b604051602081830303815290604052611b4f565b9050600081604051602001610df39190612c75565b6040516020818303038152906040529050610e426040518060400160405280601c81526020017f0a2d2d2d2d2d2d2d2d2d2d2d2d2d2d2d2d2d2d2d2d2d2d2d2d2d2d2d000000008152506111b1565b610e6a81604051602001610e569190612ba8565b6040516020818303038152906040526111b1565b610ea86040518060400160405280601c81526020017f2d2d2d2d2d2d2d2d2d2d2d2d2d2d2d2d2d2d2d2d2d2d2d2d2d2d2d0a000000008152506111b1565b610eb2338a611ce7565b610ebc8982611d05565b610ec66007611d79565b610ee9604051806060016040528060258152602001613b52602591398a33611d8f565b7febb98688741ffa4c7589bf325de30cf7becb63de567842e1ccdb6cb949fdc82c338a604051610f1a929190612d20565b60405180910390a1505050505050505050565b6000600560008473ffffffffffffffffffffffffffffffffffffffff1673ffffffffffffffffffffffffffffffffffffffff16815260200190815260200160002060008373ffffffffffffffffffffffffffffffffffffffff1673ffffffffffffffffffffffffffffffffffffffff16815260200190815260200160002060009054906101000a900460ff16905092915050565b60606000610ff5610fd184611726565b604051602001610fe19190612c53565b604051602081830303815290604052611887565b9050600a80549050816110089190613304565b9050600a818154811061101e5761101d6133c2565b5b90600052602060002001805461103390613258565b80601f016020809104026020016040519081016040528092919081815260200182805461105f90613258565b80156110ac5780601f10611081576101008083540402835291602001916110ac565b820191906000526020600020905b81548152906001019060200180831161108f57829003601f168201915b5050505050915050919050565b606060006110ed6110c984611726565b6040516020016110d99190612bec565b604051602081830303815290604052611887565b9050600b80549050816111009190613304565b9050600b8181548110611116576111156133c2565b5b90600052602060002001805461112b90613258565b80601f016020809104026020016040519081016040528092919081815260200182805461115790613258565b80156111a45780601f10611179576101008083540402835291602001916111a4565b820191906000526020600020905b81548152906001019060200180831161118757829003601f168201915b5050505050915050919050565b611247816040516024016111c59190612d64565b6040516020818303038152906040527f41304fac000000000000000000000000000000000000000000000000000000007bffffffffffffffffffffffffffffffffffffffffffffffffffffffff19166020820180517bffffffffffffffffffffffffffffffffffffffffffffffffffffffff8381831617835250505050611e2e565b50565b60007f01ffc9a7000000000000000000000000000000000000000000000000000000007bffffffffffffffffffffffffffffffffffffffffffffffffffffffff1916827bffffffffffffffffffffffffffffffffffffffffffffffffffffffff1916149050919050565b60008073ffffffffffffffffffffffffffffffffffffffff166002600084815260200190815260200160002060009054906101000a900473ffffffffffffffffffffffffffffffffffffffff1673ffffffffffffffffffffffffffffffffffffffff1614159050919050565b600033905090565b816004600083815260200190815260200160002060006101000a81548173ffffffffffffffffffffffffffffffffffffffff021916908373ffffffffffffffffffffffffffffffffffffffff160217905550808273ffffffffffffffffffffffffffffffffffffffff1661139b83610856565b73ffffffffffffffffffffffffffffffffffffffff167f8c5be1e5ebec7d5bd14f71427d1e84f3dd0314c0f7b2291e5b200ac8c7c3b92560405160405180910390a45050565b60006113ec826112b4565b61142b576040517f08c379a000000000000000000000000000000000000000000000000000000000815260040161142290612e64565b60405180910390fd5b600061143683610856565b90508073ffffffffffffffffffffffffffffffffffffffff168473ffffffffffffffffffffffffffffffffffffffff1614806114a557508373ffffffffffffffffffffffffffffffffffffffff1661148d84610541565b73ffffffffffffffffffffffffffffffffffffffff16145b806114b657506114b58185610f2d565b5b91505092915050565b8273ffffffffffffffffffffffffffffffffffffffff166114df82610856565b73ffffffffffffffffffffffffffffffffffffffff1614611535576040517f08c379a000000000000000000000000000000000000000000000000000000000815260040161152c90612de4565b60405180910390fd5b600073ffffffffffffffffffffffffffffffffffffffff168273ffffffffffffffffffffffffffffffffffffffff1614156115a5576040517f08c379a000000000000000000000000000000000000000000000000000000000815260040161159c90612e24565b60405180910390fd5b6115b0838383611e57565b6115bb600082611328565b6001600360008573ffffffffffffffffffffffffffffffffffffffff1673ffffffffffffffffffffffffffffffffffffffff168152602001908152602001600020600082825461160b919061316e565b925050819055506001600360008473ffffffffffffffffffffffffffffffffffffffff1673ffffffffffffffffffffffffffffffffffffffff1681526020019081526020016000206000828254611662919061308d565b92505081905550816002600083815260200190815260200160002060006101000a81548173ffffffffffffffffffffffffffffffffffffffff021916908373ffffffffffffffffffffffffffffffffffffffff160217905550808273ffffffffffffffffffffffffffffffffffffffff168473ffffffffffffffffffffffffffffffffffffffff167fddf252ad1be2c89b69c2b068fc378daa952ba7f163c4a11628f55a4df523b3ef60405160405180910390a4611721838383611e5c565b505050565b6060600082141561176e576040518060400160405280600181526020017f30000000000000000000000000000000000000000000000000000000000000008152509050611882565b600082905060005b600082146117a0578080611789906132bb565b915050600a8261179991906130e3565b9150611776565b60008167ffffffffffffffff8111156117bc576117bb6133f1565b5b6040519080825280601f01601f1916602001820160405280156117ee5781602001600182028036833780820191505090505b5090505b6000851461187b57600182611807919061316e565b9150600a856118169190613304565b6030611822919061308d565b60f81b818381518110611838576118376133c2565b5b60200101907effffffffffffffffffffffffffffffffffffffffffffffffffffffffffffff1916908160001a905350600a8561187491906130e3565b94506117f2565b8093505050505b919050565b60008160405160200161189a9190612af3565b6040516020818303038152906040528051906020012060001c9050919050565b8173ffffffffffffffffffffffffffffffffffffffff168373ffffffffffffffffffffffffffffffffffffffff161415611929576040517f08c379a000000000000000000000000000000000000000000000000000000000815260040161192090612e44565b60405180910390fd5b80600560008573ffffffffffffffffffffffffffffffffffffffff1673ffffffffffffffffffffffffffffffffffffffff16815260200190815260200160002060008473ffffffffffffffffffffffffffffffffffffffff1673ffffffffffffffffffffffffffffffffffffffff16815260200190815260200160002060006101000a81548160ff0219169083151502179055508173ffffffffffffffffffffffffffffffffffffffff168373ffffffffffffffffffffffffffffffffffffffff167f17307eab39ab6107e8899845ad3d59bd9653f200f220920489ca2b5937696c3183604051611a1a9190612d49565b60405180910390a3505050565b611a328484846114bf565b611a3e84848484611e61565b611a7d576040517f08c379a0000000000000000000000000000000000000000000000000000000008152600401611a7490612dc4565b60405180910390fd5b50505050565b606060405180602001604052806000815250905090565b6060611aa5826112b4565b611ae4576040517f08c379a0000000000000000000000000000000000000000000000000000000008152600401611adb90612f64565b60405180910390fd5b6000611aee611a83565b90506000815111611b0e5760405180602001604052806000815250611b39565b80611b1884611726565b604051602001611b29929190612b0a565b6040516020818303038152906040525b915050919050565b600081600001549050919050565b60606000825190506000811415611b785760405180602001604052806000815250915050611ce2565b60006003600283611b89919061308d565b611b9391906130e3565b6004611b9f9190613114565b90506000602082611bb0919061308d565b67ffffffffffffffff811115611bc957611bc86133f1565b5b6040519080825280601f01601f191660200182016040528015611bfb5781602001600182028036833780820191505090505b5090506000604051806060016040528060408152602001613b77604091399050600181016020830160005b86811015611c9f5760038101905062ffffff818a015116603f8160121c168401518060081b905060ff603f83600c1c1686015116810190508060081b905060ff603f8360061c1686015116810190508060081b905060ff603f831686015116810190508060e01b90508084526004840193505050611c26565b506003860660018114611cb95760028114611cc957611cd4565b613d3d60f01b6002830352611cd4565b603d60f81b60018303525b508484525050819450505050505b919050565b611d01828260405180602001604052806000815250611ff8565b5050565b611d0e826112b4565b611d4d576040517f08c379a0000000000000000000000000000000000000000000000000000000008152600401611d4490612ee4565b60405180910390fd5b80600660008481526020019081526020016000209080519060200190611d74929190612250565b505050565b6001816000016000828254019250508190555050565b611e29838383604051602401611da793929190612d86565b6040516020818303038152906040527fe3849f79000000000000000000000000000000000000000000000000000000007bffffffffffffffffffffffffffffffffffffffffffffffffffffffff19166020820180517bffffffffffffffffffffffffffffffffffffffffffffffffffffffff8381831617835250505050611e2e565b505050565b60008151905060006a636f6e736f6c652e6c6f679050602083016000808483855afa5050505050565b505050565b505050565b6000611e828473ffffffffffffffffffffffffffffffffffffffff16612053565b15611feb578373ffffffffffffffffffffffffffffffffffffffff1663150b7a02611eab611320565b8786866040518563ffffffff1660e01b8152600401611ecd9493929190612cd4565b602060405180830381600087803b158015611ee757600080fd5b505af1925050508015611f1857506040513d601f19601f82011682018060405250810190611f1591906125bc565b60015b611f9b573d8060008114611f48576040519150601f19603f3d011682016040523d82523d6000602084013e611f4d565b606091505b50600081511415611f93576040517f08c379a0000000000000000000000000000000000000000000000000000000008152600401611f8a90612dc4565b60405180910390fd5b805181602001fd5b63150b7a0260e01b7bffffffffffffffffffffffffffffffffffffffffffffffffffffffff1916817bffffffffffffffffffffffffffffffffffffffffffffffffffffffff191614915050611ff0565b600190505b949350505050565b6120028383612076565b61200f6000848484611e61565b61204e576040517f08c379a000000000000000000000000000000000000000000000000000000000815260040161204590612dc4565b60405180910390fd5b505050565b6000808273ffffffffffffffffffffffffffffffffffffffff163b119050919050565b600073ffffffffffffffffffffffffffffffffffffffff168273ffffffffffffffffffffffffffffffffffffffff1614156120e6576040517f08c379a00000000000000000000000000000000000000000000000000000000081526004016120dd90612f04565b60405180910390fd5b6120ef816112b4565b1561212f576040517f08c379a000000000000000000000000000000000000000000000000000000000815260040161212690612e04565b60405180910390fd5b61213b60008383611e57565b6001600360008473ffffffffffffffffffffffffffffffffffffffff1673ffffffffffffffffffffffffffffffffffffffff168152602001908152602001600020600082825461218b919061308d565b92505081905550816002600083815260200190815260200160002060006101000a81548173ffffffffffffffffffffffffffffffffffffffff021916908373ffffffffffffffffffffffffffffffffffffffff160217905550808273ffffffffffffffffffffffffffffffffffffffff16600073ffffffffffffffffffffffffffffffffffffffff167fddf252ad1be2c89b69c2b068fc378daa952ba7f163c4a11628f55a4df523b3ef60405160405180910390a461224c60008383611e5c565b5050565b82805461225c90613258565b90600052602060002090601f01602090048101928261227e57600085556122c5565b82601f1061229757805160ff19168380011785556122c5565b828001600101855582156122c5579182015b828111156122c45782518255916020019190600101906122a9565b5b5090506122d291906122d6565b5090565b5b808211156122ef5760008160009055506001016122d7565b5090565b600061230661230184613004565b612fdf565b90508281526020810184848401111561232257612321613425565b5b61232d848285613216565b509392505050565b60008135905061234481613af5565b92915050565b60008135905061235981613b0c565b92915050565b60008135905061236e81613b23565b92915050565b60008151905061238381613b23565b92915050565b600082601f83011261239e5761239d613420565b5b81356123ae8482602086016122f3565b91505092915050565b6000813590506123c681613b3a565b92915050565b6000602082840312156123e2576123e161342f565b5b60006123f084828501612335565b91505092915050565b600080604083850312156124105761240f61342f565b5b600061241e85828601612335565b925050602061242f85828601612335565b9150509250929050565b6000806000606084860312156124525761245161342f565b5b600061246086828701612335565b935050602061247186828701612335565b9250506040612482868287016123b7565b9150509250925092565b600080600080608085870312156124a6576124a561342f565b5b60006124b487828801612335565b94505060206124c587828801612335565b93505060406124d6878288016123b7565b925050606085013567ffffffffffffffff8111156124f7576124f661342a565b5b61250387828801612389565b91505092959194509250565b600080604083850312156125265761252561342f565b5b600061253485828601612335565b92505060206125458582860161234a565b9150509250929050565b600080604083850312156125665761256561342f565b5b600061257485828601612335565b9250506020612585858286016123b7565b9150509250929050565b6000602082840312156125a5576125a461342f565b5b60006125b38482850161235f565b91505092915050565b6000602082840312156125d2576125d161342f565b5b60006125e084828501612374565b91505092915050565b6000602082840312156125ff576125fe61342f565b5b600061260d848285016123b7565b91505092915050565b61261f816131a2565b82525050565b61262e816131b4565b82525050565b600061263f8261304a565b6126498185613060565b9350612659818560208601613225565b61266281613434565b840191505092915050565b600061267882613055565b6126828185613071565b9350612692818560208601613225565b61269b81613434565b840191505092915050565b60006126b182613055565b6126bb8185613082565b93506126cb818560208601613225565b80840191505092915050565b600081546126e481613258565b6126ee8186613082565b94506001821660008114612709576001811461271a5761274d565b60ff1983168652818601935061274d565b61272385613035565b60005b8381101561274557815481890152600182019150602081019050612726565b838801955050505b50505092915050565b6000612763602583613082565b915061276e82613445565b602582019050919050565b6000612786603283613071565b915061279182613494565b604082019050919050565b60006127a9602583613071565b91506127b4826134e3565b604082019050919050565b60006127cc601c83613071565b91506127d782613532565b602082019050919050565b60006127ef600a83613082565b91506127fa8261355b565b600a82019050919050565b6000612812602483613071565b915061281d82613584565b604082019050919050565b6000612835601983613071565b9150612840826135d3565b602082019050919050565b6000612858600b83613082565b9150612863826135fc565b600b82019050919050565b600061287b602c83613071565b915061288682613625565b604082019050919050565b600061289e600d83613082565b91506128a982613674565b600d82019050919050565b60006128c1603883613071565b91506128cc8261369d565b604082019050919050565b60006128e4602a83613071565b91506128ef826136ec565b604082019050919050565b6000612907602983613071565b91506129128261373b565b604082019050919050565b600061292a602e83613071565b91506129358261378a565b604082019050919050565b600061294d600283613082565b9150612958826137d9565b600282019050919050565b6000612970602083613071565b915061297b82613802565b602082019050919050565b6000612993603183613071565b915061299e8261382b565b604082019050919050565b60006129b6602c83613071565b91506129c18261387a565b604082019050919050565b60006129d9606b83613082565b91506129e4826138c9565b606b82019050919050565b60006129fc602f83613071565b9150612a0782613964565b604082019050919050565b6000612a1f600a83613082565b9150612a2a826139b3565b600a82019050919050565b6000612a42602183613071565b9150612a4d826139dc565b604082019050919050565b6000612a65600a83613082565b9150612a7082613a2b565b600a82019050919050565b6000612a88601d83613082565b9150612a9382613a54565b601d82019050919050565b6000612aab603183613071565b9150612ab682613a7d565b604082019050919050565b6000612ace600583613082565b9150612ad982613acc565b600582019050919050565b612aed8161320c565b82525050565b6000612aff82846126a6565b915081905092915050565b6000612b1682856126a6565b9150612b2282846126a6565b91508190509392505050565b6000612b3a82866126a6565b9150612b4682856126a6565b9150612b5282846126a6565b9150819050949350505050565b6000612b6b82876126d7565b9150612b7782866126a6565b9150612b8382856126d7565b9150612b8f82846126a6565b9150612b9a82612891565b915081905095945050505050565b6000612bb382612756565b9150612bbf82846126a6565b915081905092915050565b6000612bd5826127e2565b9150612be182846126a6565b915081905092915050565b6000612bf78261284b565b9150612c0382846126a6565b915081905092915050565b6000612c1982612a12565b9150612c2582856126a6565b9150612c30826129cc565b9150612c3c82846126a6565b9150612c4782612940565b91508190509392505050565b6000612c5e82612a58565b9150612c6a82846126a6565b915081905092915050565b6000612c8082612a7b565b9150612c8c82846126a6565b915081905092915050565b6000612ca282612ac1565b9150612cae82846126a6565b915081905092915050565b6000602082019050612cce6000830184612616565b92915050565b6000608082019050612ce96000830187612616565b612cf66020830186612616565b612d036040830185612ae4565b8181036060830152612d158184612634565b905095945050505050565b6000604082019050612d356000830185612616565b612d426020830184612ae4565b9392505050565b6000602082019050612d5e6000830184612625565b92915050565b60006020820190508181036000830152612d7e818461266d565b905092915050565b60006060820190508181036000830152612da0818661266d565b9050612daf6020830185612ae4565b612dbc6040830184612616565b949350505050565b60006020820190508181036000830152612ddd81612779565b9050919050565b60006020820190508181036000830152612dfd8161279c565b9050919050565b60006020820190508181036000830152612e1d816127bf565b9050919050565b60006020820190508181036000830152612e3d81612805565b9050919050565b60006020820190508181036000830152612e5d81612828565b9050919050565b60006020820190508181036000830152612e7d8161286e565b9050919050565b60006020820190508181036000830152612e9d816128b4565b9050919050565b60006020820190508181036000830152612ebd816128d7565b9050919050565b60006020820190508181036000830152612edd816128fa565b9050919050565b60006020820190508181036000830152612efd8161291d565b9050919050565b60006020820190508181036000830152612f1d81612963565b9050919050565b60006020820190508181036000830152612f3d81612986565b9050919050565b60006020820190508181036000830152612f5d816129a9565b9050919050565b60006020820190508181036000830152612f7d816129ef565b9050919050565b60006020820190508181036000830152612f9d81612a35565b9050919050565b60006020820190508181036000830152612fbd81612a9e565b9050919050565b6000602082019050612fd96000830184612ae4565b92915050565b6000612fe9612ffa565b9050612ff5828261328a565b919050565b6000604051905090565b600067ffffffffffffffff82111561301f5761301e6133f1565b5b61302882613434565b9050602081019050919050565b60008190508160005260206000209050919050565b600081519050919050565b600081519050919050565b600082825260208201905092915050565b600082825260208201905092915050565b600081905092915050565b60006130988261320c565b91506130a38361320c565b9250827fffffffffffffffffffffffffffffffffffffffffffffffffffffffffffffffff038211156130d8576130d7613335565b5b828201905092915050565b60006130ee8261320c565b91506130f98361320c565b92508261310957613108613364565b5b828204905092915050565b600061311f8261320c565b915061312a8361320c565b9250817fffffffffffffffffffffffffffffffffffffffffffffffffffffffffffffffff048311821515161561316357613162613335565b5b828202905092915050565b60006131798261320c565b91506131848361320c565b92508282101561319757613196613335565b5b828203905092915050565b60006131ad826131ec565b9050919050565b60008115159050919050565b60007fffffffff0000000000000000000000000000000000000000000000000000000082169050919050565b600073ffffffffffffffffffffffffffffffffffffffff82169050919050565b6000819050919050565b82818337600083830152505050565b60005b83811015613243578082015181840152602081019050613228565b83811115613252576000848401525b50505050565b6000600282049050600182168061327057607f821691505b6020821081141561328457613283613393565b5b50919050565b61329382613434565b810181811067ffffffffffffffff821117156132b2576132b16133f1565b5b80604052505050565b60006132c68261320c565b91507fffffffffffffffffffffffffffffffffffffffffffffffffffffffffffffffff8214156132f9576132f8613335565b5b600182019050919050565b600061330f8261320c565b915061331a8361320c565b92508261332a57613329613364565b5b828206905092915050565b7f4e487b7100000000000000000000000000000000000000000000000000000000600052601160045260246000fd5b7f4e487b7100000000000000000000000000000000000000000000000000000000600052601260045260246000fd5b7f4e487b7100000000000000000000000000000000000000000000000000000000600052602260045260246000fd5b7f4e487b7100000000000000000000000000000000000000000000000000000000600052603260045260246000fd5b7f4e487b7100000000000000000000000000000000000000000000000000000000600052604160045260246000fd5b600080fd5b600080fd5b600080fd5b600080fd5b6000601f19601f8301169050919050565b7f68747470733a2f2f6e6674707265766965772e30786465762e636f6465732f3f60008201527f636f64653d000000000000000000000000000000000000000000000000000000602082015250565b7f4552433732313a207472616e7366657220746f206e6f6e20455243373231526560008201527f63656976657220696d706c656d656e7465720000000000000000000000000000602082015250565b7f4552433732313a207472616e736665722066726f6d20696e636f72726563742060008201527f6f776e6572000000000000000000000000000000000000000000000000000000602082015250565b7f4552433732313a20746f6b656e20616c7265616479206d696e74656400000000600082015250565b7f54484952445f574f524400000000000000000000000000000000000000000000600082015250565b7f4552433732313a207472616e7366657220746f20746865207a65726f2061646460008201527f7265737300000000000000000000000000000000000000000000000000000000602082015250565b7f4552433732313a20617070726f766520746f2063616c6c657200000000000000600082015250565b7f5345434f4e445f574f5244000000000000000000000000000000000000000000600082015250565b7f4552433732313a206f70657261746f7220717565727920666f72206e6f6e657860008201527f697374656e7420746f6b656e0000000000000000000000000000000000000000602082015250565b7f3c2f746578743e3c2f7376673e00000000000000000000000000000000000000600082015250565b7f4552433732313a20617070726f76652063616c6c6572206973206e6f74206f7760008201527f6e6572206e6f7220617070726f76656420666f7220616c6c0000000000000000602082015250565b7f4552433732313a2062616c616e636520717565727920666f7220746865207a6560008201527f726f206164647265737300000000000000000000000000000000000000000000602082015250565b7f4552433732313a206f776e657220717565727920666f72206e6f6e657869737460008201527f656e7420746f6b656e0000000000000000000000000000000000000000000000602082015250565b7f45524337323155524953746f726167653a2055524920736574206f66206e6f6e60008201527f6578697374656e7420746f6b656e000000000000000000000000000000000000602082015250565b7f227d000000000000000000000000000000000000000000000000000000000000600082015250565b7f4552433732313a206d696e7420746f20746865207a65726f2061646472657373600082015250565b7f45524337323155524953746f726167653a2055524920717565727920666f722060008201527f6e6f6e6578697374656e7420746f6b656e000000000000000000000000000000602082015250565b7f4552433732313a20617070726f76656420717565727920666f72206e6f6e657860008201527f697374656e7420746f6b656e0000000000000000000000000000000000000000602082015250565b7f222c20226465736372697074696f6e223a2022416e204e46542066726f6d207460008201527f686520657069632074687265652d776f72642d636f6d626f20636f6c6c65637460208201527f696f6e2e222c2022696d616765223a2022646174613a696d6167652f7376672b60408201527f786d6c3b6261736536342c000000000000000000000000000000000000000000606082015250565b7f4552433732314d657461646174613a2055524920717565727920666f72206e6f60008201527f6e6578697374656e7420746f6b656e0000000000000000000000000000000000602082015250565b7f7b226e616d65223a202200000000000000000000000000000000000000000000600082015250565b7f4552433732313a20617070726f76616c20746f2063757272656e74206f776e6560008201527f7200000000000000000000000000000000000000000000000000000000000000602082015250565b7f46495253545f574f524400000000000000000000000000000000000000000000600082015250565b7f646174613a6170706c69636174696f6e2f6a736f6e3b6261736536342c000000600082015250565b7f4552433732313a207472616e736665722063616c6c6572206973206e6f74206f60008201527f776e6572206e6f7220617070726f766564000000000000000000000000000000602082015250565b7f434f4c4f52000000000000000000000000000000000000000000000000000000600082015250565b613afe816131a2565b8114613b0957600080fd5b50565b613b15816131b4565b8114613b2057600080fd5b50565b613b2c816131c0565b8114613b3757600080fd5b50565b613b438161320c565b8114613b4e57600080fd5b5056fe416e204e465420772f20494420257320686173206265656e206d696e74656420746f2025734142434445464748494a4b4c4d4e4f505152535455565758595a6162636465666768696a6b6c6d6e6f707172737475767778797a303132333435363738392b2fa264697066735822122055e6d4597c1484f932014d8b728258d47ba985e7d610cfa4cfa6d4dbb9580fb464736f6c634300080700333c73766720786d6c6e733d27687474703a2f2f7777772e77332e6f72672f323030302f73766727207072657365727665417370656374526174696f3d27784d696e594d696e206d656574272076696577426f783d273020302033353020333530273e3c7374796c653e2e62617365207b2066696c6c3a20234438443243423b20666f6e742d66616d696c793a2073616e732d73657269663b20666f6e742d73697a653a20323470783b207d3c2f7374796c653e3c726563742077696474683d273130302527206865696768743d2731303025272066696c6c3d27272f3e3c7465787420783d273530252720793d273530252720636c6173733d27626173652720646f6d696e616e742d626173656c696e653d276d6964646c652720746578742d616e63686f723d276d6964646c65273e",
    "linkReferences": {},
    "deployedLinkReferences": {}
}